{"abi":[{"type":"constructor","inputs":[{"name":"name_","type":"string","internalType":"string"},{"name":"symbol_","type":"string","internalType":"string"},{"name":"wrapCoin_","type":"address","internalType":"address"},{"name":"erc6551AccountImp_","type":"address","internalType":"address"}],"stateMutability":"payable"},{"type":"receive","stateMutability":"payable"},{"type":"function","name":"account","inputs":[{"name":"implementation","type":"address","internalType":"address"},{"name":"salt","type":"bytes32","internalType":"bytes32"},{"name":"chainId","type":"uint256","internalType":"uint256"},{"name":"tokenContract","type":"address","internalType":"address"},{"name":"tokenId","type":"uint256","internalType":"uint256"}],"outputs":[{"name":"","type":"address","internalType":"address"}],"stateMutability":"view"},{"type":"function","name":"approve","inputs":[{"name":"to","type":"address","internalType":"address"},{"name":"tokenId","type":"uint256","internalType":"uint256"}],"outputs":[],"stateMutability":"nonpayable"},{"type":"function","name":"balanceOf","inputs":[{"name":"owner","type":"address","internalType":"address"}],"outputs":[{"name":"","type":"uint256","internalType":"uint256"}],"stateMutability":"view"},{"type":"function","name":"createAccount","inputs":[{"name":"implementation","type":"address","internalType":"address"},{"name":"salt","type":"bytes32","internalType":"bytes32"},{"name":"chainId","type":"uint256","internalType":"uint256"},{"name":"tokenContract","type":"address","internalType":"address"},{"name":"tokenId","type":"uint256","internalType":"uint256"}],"outputs":[{"name":"result","type":"address","internalType":"address"}],"stateMutability":"nonpayable"},{"type":"function","name":"erc6551AccountImp","inputs":[],"outputs":[{"name":"","type":"address","internalType":"address"}],"stateMutability":"view"},{"type":"function","name":"getApproved","inputs":[{"name":"tokenId","type":"uint256","internalType":"uint256"}],"outputs":[{"name":"","type":"address","internalType":"address"}],"stateMutability":"view"},{"type":"function","name":"getDomainSeparator","inputs":[],"outputs":[{"name":"","type":"bytes32","internalType":"bytes32"}],"stateMutability":"view"},{"type":"function","name":"getName","inputs":[{"name":"node","type":"bytes32","internalType":"bytes32"}],"outputs":[{"name":"","type":"bytes","internalType":"bytes"}],"stateMutability":"view"},{"type":"function","name":"getNode","inputs":[{"name":"tokenId","type":"uint256","internalType":"uint256"}],"outputs":[{"name":"node","type":"bytes32","internalType":"bytes32"}],"stateMutability":"view"},{"type":"function","name":"getPrice","inputs":[],"outputs":[{"name":"currentPrice","type":"uint256","internalType":"uint256"}],"stateMutability":"view"},{"type":"function","name":"getResolver","inputs":[{"name":"node","type":"bytes32","internalType":"bytes32"}],"outputs":[{"name":"","type":"address","internalType":"address"}],"stateMutability":"view"},{"type":"function","name":"getTokenId","inputs":[{"name":"node","type":"bytes32","internalType":"bytes32"}],"outputs":[{"name":"","type":"uint256","internalType":"uint256"}],"stateMutability":"view"},{"type":"function","name":"getTokenURIEngine","inputs":[{"name":"tokenId","type":"uint256","internalType":"uint256"}],"outputs":[{"name":"","type":"address","internalType":"address"}],"stateMutability":"view"},{"type":"function","name":"isApprovedForAll","inputs":[{"name":"owner","type":"address","internalType":"address"},{"name":"operator","type":"address","internalType":"address"}],"outputs":[{"name":"","type":"bool","internalType":"bool"}],"stateMutability":"view"},{"type":"function","name":"isAuthorized","inputs":[{"name":"spender","type":"address","internalType":"address"},{"name":"tokenId","type":"uint256","internalType":"uint256"}],"outputs":[{"name":"","type":"bool","internalType":"bool"}],"stateMutability":"view"},{"type":"function","name":"isRecordExists","inputs":[{"name":"node","type":"bytes32","internalType":"bytes32"}],"outputs":[{"name":"","type":"bool","internalType":"bool"}],"stateMutability":"view"},{"type":"function","name":"mint","inputs":[{"name":"name_","type":"string","internalType":"string"},{"name":"slippagePrice","type":"uint256","internalType":"uint256"}],"outputs":[{"name":"id","type":"uint256","internalType":"uint256"}],"stateMutability":"nonpayable"},{"type":"function","name":"name","inputs":[],"outputs":[{"name":"","type":"string","internalType":"string"}],"stateMutability":"view"},{"type":"function","name":"nextPriceNonce","inputs":[],"outputs":[{"name":"","type":"uint256","internalType":"uint256"}],"stateMutability":"view"},{"type":"function","name":"nextTokenId","inputs":[],"outputs":[{"name":"","type":"uint256","internalType":"uint256"}],"stateMutability":"view"},{"type":"function","name":"onERC721Received","inputs":[{"name":"","type":"address","internalType":"address"},{"name":"","type":"address","internalType":"address"},{"name":"","type":"uint256","internalType":"uint256"},{"name":"","type":"bytes","internalType":"bytes"}],"outputs":[{"name":"","type":"bytes4","internalType":"bytes4"}],"stateMutability":"nonpayable"},{"type":"function","name":"ownerOf","inputs":[{"name":"tokenId","type":"uint256","internalType":"uint256"}],"outputs":[{"name":"","type":"address","internalType":"address"}],"stateMutability":"view"},{"type":"function","name":"permit","inputs":[{"name":"spender","type":"address","internalType":"address"},{"name":"tokenId","type":"uint256","internalType":"uint256"},{"name":"sig","type":"tuple","internalType":"struct IBaseERC721.EIP712Signature","components":[{"name":"v","type":"uint8","internalType":"uint8"},{"name":"r","type":"bytes32","internalType":"bytes32"},{"name":"s","type":"bytes32","internalType":"bytes32"},{"name":"deadline","type":"uint256","internalType":"uint256"}]}],"outputs":[],"stateMutability":"nonpayable"},{"type":"function","name":"permitForAll","inputs":[{"name":"owner","type":"address","internalType":"address"},{"name":"operator","type":"address","internalType":"address"},{"name":"approved","type":"bool","internalType":"bool"},{"name":"sig","type":"tuple","internalType":"struct IBaseERC721.EIP712Signature","components":[{"name":"v","type":"uint8","internalType":"uint8"},{"name":"r","type":"bytes32","internalType":"bytes32"},{"name":"s","type":"bytes32","internalType":"bytes32"},{"name":"deadline","type":"uint256","internalType":"uint256"}]}],"outputs":[],"stateMutability":"nonpayable"},{"type":"function","name":"royaltyInfo","inputs":[{"name":"tokenId","type":"uint256","internalType":"uint256"},{"name":"salePrice","type":"uint256","internalType":"uint256"}],"outputs":[{"name":"","type":"address","internalType":"address"},{"name":"","type":"uint256","internalType":"uint256"}],"stateMutability":"view"},{"type":"function","name":"safeTransferFrom","inputs":[{"name":"from","type":"address","internalType":"address"},{"name":"to","type":"address","internalType":"address"},{"name":"tokenId","type":"uint256","internalType":"uint256"}],"outputs":[],"stateMutability":"nonpayable"},{"type":"function","name":"safeTransferFrom","inputs":[{"name":"from","type":"address","internalType":"address"},{"name":"to","type":"address","internalType":"address"},{"name":"tokenId","type":"uint256","internalType":"uint256"},{"name":"data","type":"bytes","internalType":"bytes"}],"outputs":[],"stateMutability":"nonpayable"},{"type":"function","name":"setApprovalForAll","inputs":[{"name":"operator","type":"address","internalType":"address"},{"name":"approved","type":"bool","internalType":"bool"}],"outputs":[],"stateMutability":"nonpayable"},{"type":"function","name":"setResolver","inputs":[{"name":"node","type":"bytes32","internalType":"bytes32"},{"name":"resolver","type":"address","internalType":"address"}],"outputs":[{"name":"","type":"address","internalType":"address"}],"stateMutability":"nonpayable"},{"type":"function","name":"setSubnode","inputs":[{"name":"parentNode","type":"bytes32","internalType":"bytes32"},{"name":"name","type":"bytes","internalType":"bytes"}],"outputs":[{"name":"","type":"bytes32","internalType":"bytes32"}],"stateMutability":"nonpayable"},{"type":"function","name":"setSubnodeRecord","inputs":[{"name":"parentNode","type":"bytes32","internalType":"bytes32"},{"name":"name","type":"bytes","internalType":"bytes"},{"name":"resolver","type":"address","internalType":"address"}],"outputs":[{"name":"subnode","type":"bytes32","internalType":"bytes32"}],"stateMutability":"nonpayable"},{"type":"function","name":"setTokenURIEngine","inputs":[{"name":"tokenId","type":"uint256","internalType":"uint256"},{"name":"tokenURIEngine","type":"address","internalType":"address"}],"outputs":[],"stateMutability":"nonpayable"},{"type":"function","name":"sigNonces","inputs":[{"name":"","type":"address","internalType":"address"}],"outputs":[{"name":"","type":"uint256","internalType":"uint256"}],"stateMutability":"view"},{"type":"function","name":"supportsInterface","inputs":[{"name":"interfaceId","type":"bytes4","internalType":"bytes4"}],"outputs":[{"name":"","type":"bool","internalType":"bool"}],"stateMutability":"view"},{"type":"function","name":"symbol","inputs":[],"outputs":[{"name":"","type":"string","internalType":"string"}],"stateMutability":"view"},{"type":"function","name":"tokenByIndex","inputs":[{"name":"index","type":"uint256","internalType":"uint256"}],"outputs":[{"name":"","type":"uint256","internalType":"uint256"}],"stateMutability":"view"},{"type":"function","name":"tokenOfOwnerByIndex","inputs":[{"name":"owner","type":"address","internalType":"address"},{"name":"index","type":"uint256","internalType":"uint256"}],"outputs":[{"name":"","type":"uint256","internalType":"uint256"}],"stateMutability":"view"},{"type":"function","name":"tokenURI","inputs":[{"name":"tokenId","type":"uint256","internalType":"uint256"}],"outputs":[{"name":"output","type":"string","internalType":"string"}],"stateMutability":"view"},{"type":"function","name":"tokenURIWithSig","inputs":[{"name":"result","type":"bytes","internalType":"bytes"},{"name":"extraData","type":"bytes","internalType":"bytes"}],"outputs":[{"name":"","type":"string","internalType":"string"}],"stateMutability":"view"},{"type":"function","name":"totalSupply","inputs":[],"outputs":[{"name":"","type":"uint256","internalType":"uint256"}],"stateMutability":"view"},{"type":"function","name":"transferFrom","inputs":[{"name":"from","type":"address","internalType":"address"},{"name":"to","type":"address","internalType":"address"},{"name":"tokenId","type":"uint256","internalType":"uint256"}],"outputs":[],"stateMutability":"nonpayable"},{"type":"function","name":"wrapCoin","inputs":[],"outputs":[{"name":"","type":"address","internalType":"address"}],"stateMutability":"view"},{"type":"function","name":"wrapFoundationVault","inputs":[],"outputs":[{"name":"","type":"address","internalType":"address payable"}],"stateMutability":"view"},{"type":"event","name":"Approval","inputs":[{"name":"owner","type":"address","indexed":true,"internalType":"address"},{"name":"approved","type":"address","indexed":true,"internalType":"address"},{"name":"tokenId","type":"uint256","indexed":true,"internalType":"uint256"}],"anonymous":false},{"type":"event","name":"ApprovalForAll","inputs":[{"name":"owner","type":"address","indexed":true,"internalType":"address"},{"name":"operator","type":"address","indexed":true,"internalType":"address"},{"name":"approved","type":"bool","indexed":false,"internalType":"bool"}],"anonymous":false},{"type":"event","name":"ERC6551AccountCreated","inputs":[{"name":"account","type":"address","indexed":false,"internalType":"address"},{"name":"implementation","type":"address","indexed":true,"internalType":"address"},{"name":"salt","type":"bytes32","indexed":false,"internalType":"bytes32"},{"name":"chainId","type":"uint256","indexed":false,"internalType":"uint256"},{"name":"tokenContract","type":"address","indexed":true,"internalType":"address"},{"name":"tokenId","type":"uint256","indexed":true,"internalType":"uint256"}],"anonymous":false},{"type":"event","name":"Mint","inputs":[{"name":"to","type":"address","indexed":true,"internalType":"address"},{"name":"tokenId","type":"uint256","indexed":true,"internalType":"uint256"},{"name":"name","type":"string","indexed":true,"internalType":"string"},{"name":"price","type":"uint256","indexed":false,"internalType":"uint256"}],"anonymous":false},{"type":"event","name":"NewResolver","inputs":[{"name":"node","type":"bytes32","indexed":true,"internalType":"bytes32"},{"name":"resolver","type":"address","indexed":false,"internalType":"address"}],"anonymous":false},{"type":"event","name":"NewSubNode","inputs":[{"name":"parentNode","type":"bytes32","indexed":true,"internalType":"bytes32"},{"name":"subnode","type":"bytes32","indexed":false,"internalType":"bytes32"},{"name":"name","type":"bytes","indexed":true,"internalType":"bytes"},{"name":"tokenId","type":"uint256","indexed":true,"internalType":"uint256"}],"anonymous":false},{"type":"event","name":"SetDefaultTokenURIEngine","inputs":[{"name":"tokenURIEngine","type":"address","indexed":false,"internalType":"address"}],"anonymous":false},{"type":"event","name":"SetTokenURI","inputs":[{"name":"tokenId","type":"uint256","indexed":true,"internalType":"uint256"},{"name":"tokenURIEngine","type":"address","indexed":true,"internalType":"address"},{"name":"count","type":"uint256","indexed":false,"internalType":"uint256"}],"anonymous":false},{"type":"event","name":"Transfer","inputs":[{"name":"from","type":"address","indexed":true,"internalType":"address"},{"name":"to","type":"address","indexed":true,"internalType":"address"},{"name":"tokenId","type":"uint256","indexed":true,"internalType":"uint256"}],"anonymous":false},{"type":"error","name":"ANSNameMinted","inputs":[{"name":"name","type":"bytes","internalType":"bytes"}]},{"type":"error","name":"ANSNotAuthorised","inputs":[]},{"type":"error","name":"AccountCreationFailed","inputs":[]},{"type":"error","name":"DotAgencyCommittLocked","inputs":[{"name":"priceNonce","type":"uint256","internalType":"uint256"}]},{"type":"error","name":"DotAgencyExceededSlippagePrice","inputs":[{"name":"required","type":"uint256","internalType":"uint256"},{"name":"available","type":"uint256","internalType":"uint256"}]},{"type":"error","name":"ECDSAInvalidSignature","inputs":[]},{"type":"error","name":"ECDSAInvalidSignatureLength","inputs":[{"name":"length","type":"uint256","internalType":"uint256"}]},{"type":"error","name":"ECDSAInvalidSignatureS","inputs":[{"name":"s","type":"bytes32","internalType":"bytes32"}]},{"type":"error","name":"ERC2981InvalidDefaultRoyalty","inputs":[{"name":"numerator","type":"uint256","internalType":"uint256"},{"name":"denominator","type":"uint256","internalType":"uint256"}]},{"type":"error","name":"ERC2981InvalidDefaultRoyaltyReceiver","inputs":[{"name":"receiver","type":"address","internalType":"address"}]},{"type":"error","name":"ERC2981InvalidTokenRoyalty","inputs":[{"name":"tokenId","type":"uint256","internalType":"uint256"},{"name":"numerator","type":"uint256","internalType":"uint256"},{"name":"denominator","type":"uint256","internalType":"uint256"}]},{"type":"error","name":"ERC2981InvalidTokenRoyaltyReceiver","inputs":[{"name":"tokenId","type":"uint256","internalType":"uint256"},{"name":"receiver","type":"address","internalType":"address"}]},{"type":"error","name":"ERC721EnumerableForbiddenBatchMint","inputs":[]},{"type":"error","name":"ERC721IncorrectOwner","inputs":[{"name":"sender","type":"address","internalType":"address"},{"name":"tokenId","type":"uint256","internalType":"uint256"},{"name":"owner","type":"address","internalType":"address"}]},{"type":"error","name":"ERC721InsufficientApproval","inputs":[{"name":"operator","type":"address","internalType":"address"},{"name":"tokenId","type":"uint256","internalType":"uint256"}]},{"type":"error","name":"ERC721InvalidApprover","inputs":[{"name":"approver","type":"address","internalType":"address"}]},{"type":"error","name":"ERC721InvalidOperator","inputs":[{"name":"operator","type":"address","internalType":"address"}]},{"type":"error","name":"ERC721InvalidOwner","inputs":[{"name":"owner","type":"address","internalType":"address"}]},{"type":"error","name":"ERC721InvalidReceiver","inputs":[{"name":"receiver","type":"address","internalType":"address"}]},{"type":"error","name":"ERC721InvalidSender","inputs":[{"name":"sender","type":"address","internalType":"address"}]},{"type":"error","name":"ERC721NonexistentToken","inputs":[{"name":"tokenId","type":"uint256","internalType":"uint256"}]},{"type":"error","name":"ERC721OutOfBoundsIndex","inputs":[{"name":"owner","type":"address","internalType":"address"},{"name":"index","type":"uint256","internalType":"uint256"}]},{"type":"error","name":"InvalidDefaultTokenURIEngine","inputs":[{"name":"tokenURIEngine","type":"address","internalType":"address"}]},{"type":"error","name":"InvalidDefinedTokenURIEngine","inputs":[{"name":"tokenURIEngine","type":"address","internalType":"address"}]},{"type":"error","name":"NameContainsInvalidCharacters","inputs":[]},{"type":"error","name":"NameLengthInvalid","inputs":[]},{"type":"error","name":"NotOwnerOrApproved","inputs":[]},{"type":"error","name":"ReentrancyGuardReentrantCall","inputs":[]},{"type":"error","name":"SignatureExpired","inputs":[]},{"type":"error","name":"SignatureInvalid","inputs":[]},{"type":"error","name":"ZeroSpender","inputs":[]}],"bytecode":{"object":"0x60e06040526001601055600160115560405162004ef538038062004ef5833981016040819052620000309162000486565b83836002620000408382620005a4565b5060036200004f8282620005a4565b50506001600d55506001600160a01b0380831660a052811660c05230608052604080516020810190915260008082526200008e918190600019620000d7565b6040805180820190915260068152656167656e637960d01b6020820152620000bc906000906000196200028a565b50608051620000cd9060fa620002b1565b5050505062000703565b60008381526020819052604090205415620001125781604051632f3d592760e21b815260040162000109919062000670565b60405180910390fd5b60008381526020819052604080822083905585825281206001018054620001399062000515565b80601f0160208091040260200160405190810160405280929190818152602001828054620001679062000515565b8015620001b85780601f106200018c57610100808354040283529160200191620001b8565b820191906000526020600020905b8154815290600101906020018083116200019a57829003601f168201915b505050505090508051600003620001ed576000848152602081905260409020600101620001e68482620005a4565b506200022f565b828160405160200162000202929190620006a5565b60408051601f198184030181529181526000868152602081905220600101906200022d9082620005a4565b505b8183604051620002409190620006e5565b6040518091039020867f2a991a84f5457c17708889cc4b7d18d39feef1fbe0ef2ec73655580deeb7efba876040516200027b91815260200190565b60405180910390a45050505050565b60008062000299858562000358565b9050620002a985828686620000d7565b949350505050565b6127106001600160601b038216811015620002f257604051636f483d0960e01b81526001600160601b03831660048201526024810182905260440162000109565b6001600160a01b0383166200031e57604051635b6cc80560e11b81526000600482015260240162000109565b50604080518082019091526001600160a01b039092168083526001600160601b039091166020909201829052600160a01b90910217600e55565b60008282805190602001206040516020016200037e929190918252602082015260400190565b60405160208183030381529060405280519060200120905092915050565b634e487b7160e01b600052604160045260246000fd5b60005b83811015620003cf578181015183820152602001620003b5565b50506000910152565b600082601f830112620003ea57600080fd5b81516001600160401b03808211156200040757620004076200039c565b604051601f8301601f19908116603f011681019082821181831017156200043257620004326200039c565b816040528381528660208588010111156200044c57600080fd5b6200045f846020830160208901620003b2565b9695505050505050565b80516001600160a01b03811681146200048157600080fd5b919050565b600080600080608085870312156200049d57600080fd5b84516001600160401b0380821115620004b557600080fd5b620004c388838901620003d8565b95506020870151915080821115620004da57600080fd5b50620004e987828801620003d8565b935050620004fa6040860162000469565b91506200050a6060860162000469565b905092959194509250565b600181811c908216806200052a57607f821691505b6020821081036200054b57634e487b7160e01b600052602260045260246000fd5b50919050565b601f8211156200059f57600081815260208120601f850160051c810160208610156200057a5750805b601f850160051c820191505b818110156200059b5782815560010162000586565b5050505b505050565b81516001600160401b03811115620005c057620005c06200039c565b620005d881620005d1845462000515565b8462000551565b602080601f831160018114620006105760008415620005f75750858301515b600019600386901b1c1916600185901b1785556200059b565b600085815260208120601f198616915b82811015620006415788860151825594840194600190910190840162000620565b5085821015620006605787850151600019600388901b60f8161c191681555b5050505050600190811b01905550565b602081526000825180602084015262000691816040850160208701620003b2565b601f01601f19169190910160400192915050565b60008351620006b9818460208801620003b2565b601760f91b9083019081528351620006d9816001840160208801620003b2565b01600101949350505050565b60008251620006f9818460208701620003b2565b9190910192915050565b60805160a05160c0516147ad62000748600039600081816108390152610bf70152600081816103300152610b0f0152600081816106d80152610b7301526147ad6000f3fe6080604052600436106102e05760003560e01c806375794a3c11610184578063be04bb1d116100d6578063e0d20fec1161008a578063ea6ec3de11610064578063ea6ec3de146108f3578063ed24911d1461092c578063f990ccd71461094157600080fd5b8063e0d20fec1461085b578063e1c16cf91461087b578063e985e9c5146108aa57600080fd5b8063c9cb65e1116100bb578063c9cb65e1146107da578063d7276fa114610807578063d919e6781461082757600080fd5b8063be04bb1d1461079a578063c87b56dd146107ba57600080fd5b80639028feb1116101385780639f3c4b69116101125780639f3c4b691461073a578063a22cb4651461075a578063b88d4fde1461077a57600080fd5b80639028feb1146106fa57806395d89b411461071057806398d5fdca1461072557600080fd5b806389028a131161016957806389028a13146106865780638a54c52f146106a65780638a5cc7fa146106c657600080fd5b806375794a3c146106505780637ef67f991461066657600080fd5b8063246a00211161023d5780634f0f4aa9116101f15780636352211e116101cb5780636352211e146105f05780636e205a7a1461061057806370a082311461063057600080fd5b80634f0f4aa9146105835780634f6ccce7146105b057806354b8d5e3146105d057600080fd5b80632a55205a116102225780632a55205a146105045780632f745c591461054357806342842e0e1461056357600080fd5b8063246a0021146104c45780632972b0f0146104e457600080fd5b8063095ea7b31161029457806318160ddd1161027957806318160ddd1461046f5780631896f70a1461048457806323b872dd146104a457600080fd5b8063095ea7b3146103d8578063150b7a02146103fa57600080fd5b8063056b01ce116102c5578063056b01ce1461036857806306fdde0314610396578063081812fc146103b857600080fd5b806301ffc9a7146102ec57806304360b5c1461032157600080fd5b366102e757005b600080fd5b3480156102f857600080fd5b5061030c610307366004613a7a565b61096e565b60405190151581526020015b60405180910390f35b34801561032d57600080fd5b507f00000000000000000000000000000000000000000000000000000000000000005b6040516001600160a01b039091168152602001610318565b34801561037457600080fd5b50610388610383366004613ad9565b6109e9565b604051908152602001610318565b3480156103a257600080fd5b506103ab610cf7565b6040516103189190613b75565b3480156103c457600080fd5b506103506103d3366004613b88565b610d89565b3480156103e457600080fd5b506103f86103f3366004613bb6565b610db2565b005b34801561040657600080fd5b5061043e610415366004613cc8565b7f150b7a0200000000000000000000000000000000000000000000000000000000949350505050565b6040517fffffffff000000000000000000000000000000000000000000000000000000009091168152602001610318565b34801561047b57600080fd5b50600a54610388565b34801561049057600080fd5b5061035061049f366004613d34565b610dc1565b3480156104b057600080fd5b506103f86104bf366004613d64565b610e2e565b3480156104d057600080fd5b506103506104df366004613da5565b610eeb565b3480156104f057600080fd5b5061030c6104ff366004613bb6565b610f4f565b34801561051057600080fd5b5061052461051f366004613df7565b610f64565b604080516001600160a01b039093168352602083019190915201610318565b34801561054f57600080fd5b5061038861055e366004613bb6565b611043565b34801561056f57600080fd5b506103f861057e366004613d64565b6110c1565b34801561058f57600080fd5b5061038861059e366004613b88565b60126020526000908152604090205481565b3480156105bc57600080fd5b506103886105cb366004613b88565b6110e1565b3480156105dc57600080fd5b506103ab6105eb366004613b88565b611153565b3480156105fc57600080fd5b5061035061060b366004613b88565b6111f8565b34801561061c57600080fd5b5061038861062b366004613e19565b611203565b34801561063c57600080fd5b5061038861064b366004613e65565b6112ad565b34801561065c57600080fd5b5061038860105481565b34801561067257600080fd5b506103f8610681366004613e9a565b61130e565b34801561069257600080fd5b506103f86106a1366004613ee7565b61140b565b3480156106b257600080fd5b506103506106c1366004613da5565b6114e9565b3480156106d257600080fd5b506103507f000000000000000000000000000000000000000000000000000000000000000081565b34801561070657600080fd5b5061038860115481565b34801561071c57600080fd5b506103ab6115e2565b34801561073157600080fd5b506103886115f1565b34801561074657600080fd5b506103ab610755366004613f42565b611910565b34801561076657600080fd5b506103f8610775366004613fae565b611ada565b34801561078657600080fd5b506103f8610795366004613cc8565b611ae5565b3480156107a657600080fd5b506103506107b5366004613b88565b611afc565b3480156107c657600080fd5b506103ab6107d5366004613b88565b611b24565b3480156107e657600080fd5b506103886107f5366004613b88565b60009081526020819052604090205490565b34801561081357600080fd5b50610388610822366004613fdc565b611c40565b34801561083357600080fd5b506103507f000000000000000000000000000000000000000000000000000000000000000081565b34801561086757600080fd5b506103f8610876366004613d34565b611cf6565b34801561088757600080fd5b5061030c610896366004613b88565b600090815260208190526040902054151590565b3480156108b657600080fd5b5061030c6108c536600461403b565b6001600160a01b03918216600090815260076020908152604080832093909416825291909152205460ff1690565b3480156108ff57600080fd5b5061035061090e366004613b88565b6000908152602081905260409020600201546001600160a01b031690565b34801561093857600080fd5b50610388611f05565b34801561094d57600080fd5b5061038861095c366004613e65565b600c6020526000908152604090205481565b600061097982611f14565b80610988575061098882611ff7565b80610997575061099782612049565b806109e357507fffffffff0000000000000000000000000000000000000000000000000000000082167fd687bdf100000000000000000000000000000000000000000000000000000000145b92915050565b60006109f361209f565b610a3284848080601f0160208091040260200160405190810160405280939291908181526020018383808284376000920191909152506120e292505050565b60105490506000610a9e7fb43dbfc1d2fecc659fffd218f4abb6ed0b35bd3896ba6be21f0ca46fb2102ab160001b86868080601f0160208091040260200160405190810160405280939291908181526020018383808284376000920191909152508792506122f5915050565b6000838152601260205260408120829055909150610aba6115f1565b905080841015610b05576040517f97681c6300000000000000000000000000000000000000000000000000000000815260048101829052602481018590526044015b60405180910390fd5b6001600160a01b037f0000000000000000000000000000000000000000000000000000000000000000166323b872dd3360405160e083901b7fffffffff000000000000000000000000000000000000000000000000000000001681526001600160a01b0391821660048201527f00000000000000000000000000000000000000000000000000000000000000009091166024820152604481018490526064016020604051808303816000875af1158015610bc3573d6000803e3d6000fd5b505050506040513d601f19601f82011682018060405250810190610be79190614069565b50610bf23384612318565b610c3f7f00000000000000000000000000000000000000000000000000000000000000007f44454641554c545f4143434f554e545f53414c540000000000000000000000004630876114e9565b50601060008154610c4f906140b5565b90915550426fffffffffffffffffffffffffffffffff9081167001000000000000000000000000000000000290821617601355604051610c9290879087906140ed565b604051809103902083610ca23390565b6001600160a01b03167f704496b72f6d3fd6e462fa31e27faddedde127bc9942bc94320e0c115b00cedf84604051610cdc91815260200190565b60405180910390a45050610cf06001600d55565b9392505050565b606060028054610d06906140fd565b80601f0160208091040260200160405190810160405280929190818152602001828054610d32906140fd565b8015610d7f5780601f10610d5457610100808354040283529160200191610d7f565b820191906000526020600020905b815481529060010190602001808311610d6257829003601f168201915b5050505050905090565b6000610d94826123af565b506000828152600660205260409020546001600160a01b03166109e3565b610dbd828233612401565b5050565b6000828152602081905260408120548390610de5610dde826123af565b338361240e565b610e1b576040517f868bcb2600000000000000000000000000000000000000000000000000000000815260040160405180910390fd5b610e25858561241b565b50919392505050565b6001600160a01b038216610e71576040517f64a0ae9200000000000000000000000000000000000000000000000000000000815260006004820152602401610afc565b6000610e7e8383336124bc565b9050836001600160a01b0316816001600160a01b031614610ee5576040517f64283d7b0000000000000000000000000000000000000000000000000000000081526001600160a01b0380861660048301526024820184905282166044820152606401610afc565b50505050565b600060806024608c376e5af43d82803e903d91602b57fd5bf3606c5285605d52733d60ad80600a3d3981f3363d3d373d3d3d363d7360495260ff6000533060601b6001528460155260b7605520603552605560002060601b60601c60005260206000f35b6000610cf0610f5d836123af565b848461240e565b6000828152600f602090815260408083208151808301909252546001600160a01b038116808352740100000000000000000000000000000000000000009091046bffffffffffffffffffffffff16928201929092528291611005575060408051808201909152600e546001600160a01b03811682527401000000000000000000000000000000000000000090046bffffffffffffffffffffffff1660208201525b602081015160009061271090611029906bffffffffffffffffffffffff168761414a565b6110339190614190565b91519350909150505b9250929050565b600061104e836112ad565b8210611098576040517fa57d13dc0000000000000000000000000000000000000000000000000000000081526001600160a01b038416600482015260248101839052604401610afc565b506001600160a01b03919091166000908152600860209081526040808320938352929052205490565b6110dc83838360405180602001604052806000815250611ae5565b505050565b60006110ec600a5490565b821061112e576040517fa57d13dc0000000000000000000000000000000000000000000000000000000081526000600482015260248101839052604401610afc565b600a8281548110611141576111416141cb565b90600052602060002001549050919050565b6000818152602081905260409020600101805460609190611173906140fd565b80601f016020809104026020016040519081016040528092919081815260200182805461119f906140fd565b80156111ec5780601f106111c1576101008083540402835291602001916111ec565b820191906000526020600020905b8154815290600101906020018083116111cf57829003601f168201915b50505050509050919050565b60006109e3826124c9565b6000838152602081905260408120548490611220610dde826123af565b611256576040517f868bcb2600000000000000000000000000000000000000000000000000000000815260040160405180910390fd5b6112a38686868080601f01602080910402602001604051908101604052809392919081815260200183838082843760009201829052508c81526020819052604090205492506122f5915050565b9695505050505050565b60006001600160a01b0382166112f2576040517f89c62b6400000000000000000000000000000000000000000000000000000000815260006004820152602401610afc565b506001600160a01b031660009081526005602052604090205490565b6001600160a01b03831661134e576040517f1fac5b7400000000000000000000000000000000000000000000000000000000815260040160405180910390fd5b6000611359836111f8565b6001600160a01b038181166000908152600c602090815260409182902080546001810190915582517f49ecf333e5b8c95c40fdafc95c1ad136e8914a8fb55e9dc8bb01eaa83a2df9ad9281019290925292881691810191909152606080820187905260808201929092529084013560a08201529091506113fd906113f69060c0015b604051602081830303815290604052805190602001206124d4565b8284612539565b610ee5848460006001612649565b6001600160a01b03831661144b576040517f1fac5b7400000000000000000000000000000000000000000000000000000000815260040160405180910390fd5b6001600160a01b038481166000818152600c602090815260409182902080546001810190915582517f47ab88482c90e4bb94b82a947ae78fa91fb25de1469ab491f4c15b9a0a2677ee9281019290925291810192909252918516606080830191909152841515608083015260a08201929092529082013560c08201526114de906114d79060e0016113db565b8583612539565b610ee584848461279f565b60006040518260ec8201528360cc8201528460ac82015285608c8201526e5af43d82803e903d91602b57fd5bf3606c82015286605d820152733d60ad80600a3d3981f3363d3d373d3d3d363d73604982015260b7605582012060358201523060601b600182015285601582015260ff815360558120803b1560018114611574578160601b83526115c9565b8760b7605585016000f580611592576320188a5984526004601c8501fd5b80606c85015285878b7f79f19b3655ee38b1ce526556b7731a20c8f218fbda4a3990b6cc4172fdf887226060606c8901a460601b83525b50508051601490910160405260601c9695505050505050565b606060038054610d06906140fd565b60135460009070010000000000000000000000000000000081046fffffffffffffffffffffffffffffffff1642039060bb606083811b9190910491670de0b6b3a7640000911b7bffffffffffffffffffffffffffffffff0000000000000000000000001604818403611685576060816c010cccccccccccd0000000000002901c9350606084670de0b6b3a764000002901c93505b6c04000000000000000000000000821080156116a057508115155b1561186c5760006b07c71ea419f8ad27b1bcbf0183037fffffffffffffffffc728fd85a1cfa26a8b59594c94433748a9ff0f888096a54b816116e4576116e4614161565b05905060006bb6dd018a1c524e551246a83c840377856b34ac4b78b42b2f307013a4565ac10c8878730df750bc8161171e5761171e614161565b05905060006c01ffedd6e9142381891ab0e82185037fffffffffffffffff66d46d3e84a39ef29295381405693882c9eab989bbb5898f8161176157611761614161565b05905060006c03490dbc48bb08708f630b52f486037785745dc3ce31314ce9c92ba5e0f1c51b7a0a6c40794577f08161179c5761179c614161565b05905060006c03f837e9b5373391ac53fadd4d87037fffffffffffffffffc72302c7e820d5363c7f68180ead81c91b26e8dc27f3a876816117df576117df614161565b0590508484018301820181016c010018e8ae12a71327c714711186026c0102499d785aff13e291929cd68602016c010667244055c733c4f67745ae8502016c010a840259730ebccd728a00dc8402016c010cb3d3e8c8b6e10321657e4c830201606082828161185057611850614161565b058902901c670de0b6b3a76400000260601c9a50505050505050505b6c0400000000000000000000000082106118ee576c010cccccccccccd0000000000002606090811c907ffffffffffffffffffffffffffffffffffffffffffffffffffff53322d7e200007ffffffffffffffffffffffffffffffffffffffffc000000000000000000000000840102811d906118e682612875565b8302901c9450505b670de0b6b3a764000084101561190a57670de0b6b3a764000093505b50505090565b6060600061192083850185613b88565b9050600080611931878901896141fa565b9150915060006119bb82848660405160200161194e929190614275565b60408051601f198184030181529082905280516020918201207f19457468657265756d205369676e6564204d6573736167653a0a33320000000091830191909152603c820152605c0160405160208183030381529060405280519060200120612ab490919063ffffffff16565b905060006119c885611afc565b9050816001600160a01b0316816001600160a01b0316637ac3c02f6040518163ffffffff1660e01b8152600401602060405180830381865afa158015611a12573d6000803e3d6000fd5b505050506040513d601f19601f82011682018060405250810190611a369190614297565b6001600160a01b031614611acc576040517f08c379a000000000000000000000000000000000000000000000000000000000815260206004820152602560248201527f5369676e6572206973206e6f7420746865207369676e6572206f66207468652060448201527f746f6b656e0000000000000000000000000000000000000000000000000000006064820152608401610afc565b509198975050505050505050565b610dbd33838361279f565b611af0848484610e2e565b610ee584848484612ade565b6000611b07826111f8565b50506000908152600160205260409020546001600160a01b031690565b6060611b2f826123af565b506000611b3b83611afc565b60008481526012602052604081205491925090611b5790611153565b90506000611c1482611b6887612c83565b6040517fc321118c000000000000000000000000000000000000000000000000000000008152600481018990526001600160a01b0387169063c321118c90602401600060405180830381865afa158015611bc6573d6000803e3d6000fd5b505050506040513d6000823e601f3d908101601f19168201604052611bee91908101906142b4565b604051602001611c009392919061432b565b604051602081830303815290604052612d41565b905080604051602001611c27919061443b565b6040516020818303038152906040529350505050919050565b6000848152602081905260408120548590611c5d610dde826123af565b611c93576040517f868bcb2600000000000000000000000000000000000000000000000000000000815260040160405180910390fd5b611ce08787878080601f01602080910402602001604051908101604052809392919081815260200183838082843760009201829052508d81526020819052604090205492506122f5915050565b9250611cec838561241b565b5050949350505050565b611cff81612ea1565b611d40576040517f54f038770000000000000000000000000000000000000000000000000000000081526001600160a01b0382166004820152602401610afc565b6000611d4b836111f8565b9050611d5881338561240e565b611d8e576040517fdb1453ce00000000000000000000000000000000000000000000000000000000815260040160405180910390fd5b60008381526001602081815260408084206001600160a01b0387168552928301909152822054909103611e65578054611dee907401000000000000000000000000000000000000000090046bffffffffffffffffffffffff166001614480565b6001600160a01b0384166bffffffffffffffffffffffff918216740100000000000000000000000000000000000000009081027fffffffffffffffffffffffff0000000000000000000000000000000000000000168217808555600092835260018501602052604090922091049091169055611e97565b80547fffffffffffffffffffffffff0000000000000000000000000000000000000000166001600160a01b0384161781555b8054604051740100000000000000000000000000000000000000009091046bffffffffffffffffffffffff1681526001600160a01b0384169085907f3c0d529f3c56537a7afd77eefa87fc1ea14e6df403fa49ec8808dfc402e10a0a9060200160405180910390a350505050565b6000611f0f612ecd565b905090565b60007fffffffff0000000000000000000000000000000000000000000000000000000082167f80ac58cd000000000000000000000000000000000000000000000000000000001480611fa757507fffffffff0000000000000000000000000000000000000000000000000000000082167f5b5e139f00000000000000000000000000000000000000000000000000000000145b806109e357507f01ffc9a7000000000000000000000000000000000000000000000000000000007fffffffff000000000000000000000000000000000000000000000000000000008316146109e3565b60007fffffffff0000000000000000000000000000000000000000000000000000000082167f2a55205a0000000000000000000000000000000000000000000000000000000014806109e357506109e3825b60007fffffffff0000000000000000000000000000000000000000000000000000000082167f780e9d630000000000000000000000000000000000000000000000000000000014806109e357506109e382611f14565b6002600d54036120db576040517f3ee5aeb500000000000000000000000000000000000000000000000000000000815260040160405180910390fd5b6002600d55565b805115806120f1575080516020105b15612128576040517f6a96aade00000000000000000000000000000000000000000000000000000000815260040160405180910390fd5b805160005b818110156110dc577f3000000000000000000000000000000000000000000000000000000000000000838281518110612168576121686141cb565b01602001517fff000000000000000000000000000000000000000000000000000000000000001610806121f257507f7a000000000000000000000000000000000000000000000000000000000000008382815181106121c9576121c96141cb565b01602001517fff0000000000000000000000000000000000000000000000000000000000000016115b806122b657507f390000000000000000000000000000000000000000000000000000000000000083828151811061222b5761222b6141cb565b01602001517fff00000000000000000000000000000000000000000000000000000000000000161180156122b657507f610000000000000000000000000000000000000000000000000000000000000083828151811061228d5761228d6141cb565b01602001517fff0000000000000000000000000000000000000000000000000000000000000016105b156122ed576040517ff8fa659700000000000000000000000000000000000000000000000000000000815260040160405180910390fd5b60010161212d565b6000806123028585612f62565b905061231085828686612fa5565b949350505050565b6001600160a01b03821661235b576040517f64a0ae9200000000000000000000000000000000000000000000000000000000815260006004820152602401610afc565b6000612369838360006124bc565b90506001600160a01b038116156110dc576040517f73c6ac6e00000000000000000000000000000000000000000000000000000000815260006004820152602401610afc565b6000818152600460205260408120546001600160a01b0316806109e3576040517f7e27328900000000000000000000000000000000000000000000000000000000815260048101849052602401610afc565b6110dc8383836001612649565b6000612310848484613152565b6000828152602081905260409020600201546001600160a01b03828116911614610dbd576000828152602081815260409182902060020180547fffffffffffffffffffffffff0000000000000000000000000000000000000000166001600160a01b038516908117909155915191825283917f335721b01866dc23fbee8b6b2c7b1e14d6f05c28cd35a2c934239f94095602a0910160405180910390a25050565b60006123108484846131d5565b60006109e3826123af565b6000806124df612ecd565b6040517f1901000000000000000000000000000000000000000000000000000000000000602082015260228101919091526042810184905260620160408051601f1981840301815291905280516020909101209392505050565b4281606001351015612577576040517f0819bdcd00000000000000000000000000000000000000000000000000000000815260040160405180910390fd5b600060018461258960208501856144ac565b604080516000815260208181018084529490945260ff9092168282015291850135606082015290840135608082015260a0016020604051602081039080840390855afa1580156125dd573d6000803e3d6000fd5b5050604051601f1901519150506001600160a01b03811615806126125750826001600160a01b0316816001600160a01b031614155b15610ee5576040517f37e8456b00000000000000000000000000000000000000000000000000000000815260040160405180910390fd5b808061265d57506001600160a01b03821615155b1561275757600061266d846123af565b90506001600160a01b038316158015906126995750826001600160a01b0316816001600160a01b031614155b80156126cb57506001600160a01b0380821660009081526007602090815260408083209387168352929052205460ff16155b1561270d576040517fa9fbf51f0000000000000000000000000000000000000000000000000000000081526001600160a01b0384166004820152602401610afc565b81156127555783856001600160a01b0316826001600160a01b03167f8c5be1e5ebec7d5bd14f71427d1e84f3dd0314c0f7b2291e5b200ac8c7c3b92560405160405180910390a45b505b5050600090815260066020526040902080547fffffffffffffffffffffffff0000000000000000000000000000000000000000166001600160a01b0392909216919091179055565b6001600160a01b0382166127ea576040517f5b08ba180000000000000000000000000000000000000000000000000000000081526001600160a01b0383166004820152602401610afc565b6001600160a01b0383811660008181526007602090815260408083209487168084529482529182902080547fffffffffffffffffffffffffffffffffffffffffffffffffffffffffffffff001686151590811790915591519182527f17307eab39ab6107e8899845ad3d59bd9653f200f220920489ca2b5937696c31910160405180910390a3505050565b60007ffffffffffffffffffffffffffffffffffffffffffffffffdb731c958f34d94c182136128a657506000919050565b680755bf798b4a1bf1e58212612918576040517f08c379a000000000000000000000000000000000000000000000000000000000815260206004820152600c60248201527f4558505f4f564552464c4f5700000000000000000000000000000000000000006044820152606401610afc565b6503782dace9d9604e83901b059150600060606bb17217f7d1cf79abc9e3b39884821b056b80000000000000000000000001901d6bb17217f7d1cf79abc9e3b39881029093037fffffffffffffffffffffffffffffffffffffffdbf3ccf1604d263450f02a550481018102606090811d6d0277594991cfc85f6e2461837cd9018202811d7fffffffffffffffffffffffffffffffffffffe5adedaa1cb095af9e4da10e363c018202811d6db1bbb201f443cf962f1a1d3db4a5018202811d7ffffffffffffffffffffffffffffffffffffd38dc772608b0ae56cce01296c0eb018202811d6e05180bb14799ab47a8a8cb2a527d57016d02d16720577bd19bf614176fe9ea6c10fe68e7fd37d0007b713f765084018402831d9081019084017ffffffffffffffffffffffffffffffffffffffe2c69812cf03b0763fd454a8f7e010290911d6e0587f503bb6ea29d25fcb7401964500190910279d835ebba824c98fb31b83b2ca45c000000000000000000000000010574029d9dc38563c32e5c2f6dc192ee70ef65f9978af30260c3939093039290921c92915050565b600080600080612ac486866132a2565b925092509250612ad482826132ef565b5090949350505050565b6001600160a01b0383163b15610ee5576040517f150b7a020000000000000000000000000000000000000000000000000000000081526001600160a01b0384169063150b7a0290612b399033908890879087906004016144cf565b6020604051808303816000875af1925050508015612b74575060408051601f3d908101601f19168201909252612b7191810190614501565b60015b612bf6573d808015612ba2576040519150601f19603f3d011682016040523d82523d6000602084013e612ba7565b606091505b508051600003612bee576040517f64a0ae920000000000000000000000000000000000000000000000000000000081526001600160a01b0385166004820152602401610afc565b805181602001fd5b7fffffffff0000000000000000000000000000000000000000000000000000000081167f150b7a020000000000000000000000000000000000000000000000000000000014612c7c576040517f64a0ae920000000000000000000000000000000000000000000000000000000081526001600160a01b0385166004820152602401610afc565b5050505050565b60606000612c90836133f3565b600101905060008167ffffffffffffffff811115612cb057612cb0613be2565b6040519080825280601f01601f191660200182016040528015612cda576020820181803683370190505b5090508181016020015b7fffffffffffffffffffffffffffffffffffffffffffffffffffffffffffffffff017f3031323334353637383961626364656600000000000000000000000000000000600a86061a8153600a8504945084612ce457509392505050565b60608151600003612d6057505060408051602081019091526000815290565b60006040518060600160405280604081526020016147616040913990506000600384516002612d8f919061451e565b612d999190614190565b612da490600461414a565b67ffffffffffffffff811115612dbc57612dbc613be2565b6040519080825280601f01601f191660200182016040528015612de6576020820181803683370190505b50905060018201602082018586518701602081018051600082525b82841015612e5c576003840193508351603f8160121c168701518653600186019550603f81600c1c168701518653600186019550603f8160061c168701518653600186019550603f8116870151865350600185019450612e01565b9052505085516003900660018114612e7b5760028114612e8e57612e96565b603d6001830353603d6002830353612e96565b603d60018303535b509195945050505050565b60006109e3827fc321118c000000000000000000000000000000000000000000000000000000006134d5565b60007f8b73c3c69bb8fe3d512ecc4cf759cc79239f7b179b0ffacaa9a75d522b39400f612ef8610cf7565b80516020918201206040805192830193909352918101919091527fc89efdaa54c0f20c7adf612882df0950f5a951637e0307cdcb4c672f298b8bc660608201524660808201523060a082015260c00160405160208183030381529060405280519060200120905090565b6000828280519060200120604051602001612f87929190918252602082015260400190565b60405160208183030381529060405280519060200120905092915050565b60008381526020819052604090205415612fed57816040517fbcf5649c000000000000000000000000000000000000000000000000000000008152600401610afc9190613b75565b60008381526020819052604080822083905585825281206001018054613012906140fd565b80601f016020809104026020016040519081016040528092919081815260200182805461303e906140fd565b801561308b5780601f106130605761010080835404028352916020019161308b565b820191906000526020600020905b81548152906001019060200180831161306e57829003601f168201915b5050505050905080516000036130bc5760008481526020819052604090206001016130b6848261457f565b506130fa565b82816040516020016130cf92919061467b565b60408051601f198184030181529181526000868152602081905220600101906130f8908261457f565b505b818360405161310991906146d3565b6040518091039020867f2a991a84f5457c17708889cc4b7d18d39feef1fbe0ef2ec73655580deeb7efba8760405161314391815260200190565b60405180910390a45050505050565b60006001600160a01b038316158015906123105750826001600160a01b0316846001600160a01b031614806131ac57506001600160a01b0380851660009081526007602090815260408083209387168352929052205460ff165b806123105750506000908152600660205260409020546001600160a01b03908116911614919050565b6000806131e38585856134f1565b90506001600160a01b0381166132405761323b84600a80546000838152600b60205260408120829055600182018355919091527fc65a7bb8d6351c1cf70c95a316cc6a92839c986682d98bc35f958f4883f9d2a80155565b613263565b846001600160a01b0316816001600160a01b031614613263576132638185613620565b6001600160a01b03851661327f5761327a846136b1565b612310565b846001600160a01b0316816001600160a01b031614612310576123108585613760565b600080600083516041036132dc5760208401516040850151606086015160001a6132ce888285856137b0565b9550955095505050506132e8565b50508151600091506002905b9250925092565b6000826003811115613303576133036146ef565b0361330c575050565b6001826003811115613320576133206146ef565b03613357576040517ff645eedf00000000000000000000000000000000000000000000000000000000815260040160405180910390fd5b600282600381111561336b5761336b6146ef565b036133a5576040517ffce698f700000000000000000000000000000000000000000000000000000000815260048101829052602401610afc565b60038260038111156133b9576133b96146ef565b03610dbd576040517fd78bce0c00000000000000000000000000000000000000000000000000000000815260048101829052602401610afc565b6000807a184f03e93ff9f4daa797ed6e38ed64bf6a1f010000000000000000831061343c577a184f03e93ff9f4daa797ed6e38ed64bf6a1f010000000000000000830492506040015b6d04ee2d6d415b85acef81000000008310613468576d04ee2d6d415b85acef8100000000830492506020015b662386f26fc10000831061348657662386f26fc10000830492506010015b6305f5e100831061349e576305f5e100830492506008015b61271083106134b257612710830492506004015b606483106134c4576064830492506002015b600a83106109e35760010192915050565b60006134e08361387f565b8015610cf05750610cf083836138e3565b6000828152600460205260408120546001600160a01b039081169083161561351e5761351e8184866139b3565b6001600160a01b0381161561357a5761353b600085600080612649565b6001600160a01b038116600090815260056020526040902080547fffffffffffffffffffffffffffffffffffffffffffffffffffffffffffffffff0190555b6001600160a01b038516156135a9576001600160a01b0385166000908152600560205260409020805460010190555b60008481526004602052604080822080547fffffffffffffffffffffffff0000000000000000000000000000000000000000166001600160a01b0389811691821790925591518793918516917fddf252ad1be2c89b69c2b068fc378daa952ba7f163c4a11628f55a4df523b3ef91a4949350505050565b600061362b836112ad565b60008381526009602052604090205490915080821461367e576001600160a01b03841660009081526008602090815260408083208584528252808320548484528184208190558352600990915290208190555b5060009182526009602090815260408084208490556001600160a01b039094168352600881528383209183525290812055565b600a546000906136c39060019061471e565b6000838152600b6020526040812054600a80549394509092849081106136eb576136eb6141cb565b9060005260206000200154905080600a838154811061370c5761370c6141cb565b6000918252602080832090910192909255828152600b9091526040808220849055858252812055600a80548061374457613744614731565b6001900381819060005260206000200160009055905550505050565b6000600161376d846112ad565b613777919061471e565b6001600160a01b039093166000908152600860209081526040808320868452825280832085905593825260099052919091209190915550565b600080807f7fffffffffffffffffffffffffffffff5d576e7357a4501ddfe92f46681b20a08411156137eb5750600091506003905082613875565b604080516000808252602082018084528a905260ff891692820192909252606081018790526080810186905260019060a0016020604051602081039080840390855afa15801561383f573d6000803e3d6000fd5b5050604051601f1901519150506001600160a01b03811661386b57506000925060019150829050613875565b9250600091508190505b9450945094915050565b60006138ab827f01ffc9a7000000000000000000000000000000000000000000000000000000006138e3565b80156109e357506138dc827fffffffff000000000000000000000000000000000000000000000000000000006138e3565b1592915050565b6040517fffffffff0000000000000000000000000000000000000000000000000000000082166024820152600090819060440160408051601f19818403018152919052602080820180517bffffffffffffffffffffffffffffffffffffffffffffffffffffffff167f01ffc9a700000000000000000000000000000000000000000000000000000000178152825192935060009283928392909183918a617530fa92503d9150600051905082801561399c575060208210155b80156139a85750600081115b979650505050505050565b6139be83838361240e565b6110dc576001600160a01b038316613a05576040517f7e27328900000000000000000000000000000000000000000000000000000000815260048101829052602401610afc565b6040517f177e802f0000000000000000000000000000000000000000000000000000000081526001600160a01b038316600482015260248101829052604401610afc565b7fffffffff0000000000000000000000000000000000000000000000000000000081168114613a7757600080fd5b50565b600060208284031215613a8c57600080fd5b8135610cf081613a49565b60008083601f840112613aa957600080fd5b50813567ffffffffffffffff811115613ac157600080fd5b60208301915083602082850101111561103c57600080fd5b600080600060408486031215613aee57600080fd5b833567ffffffffffffffff811115613b0557600080fd5b613b1186828701613a97565b909790965060209590950135949350505050565b60005b83811015613b40578181015183820152602001613b28565b50506000910152565b60008151808452613b61816020860160208601613b25565b601f01601f19169290920160200192915050565b602081526000610cf06020830184613b49565b600060208284031215613b9a57600080fd5b5035919050565b6001600160a01b0381168114613a7757600080fd5b60008060408385031215613bc957600080fd5b8235613bd481613ba1565b946020939093013593505050565b7f4e487b7100000000000000000000000000000000000000000000000000000000600052604160045260246000fd5b604051601f8201601f1916810167ffffffffffffffff81118282101715613c3a57613c3a613be2565b604052919050565b600067ffffffffffffffff821115613c5c57613c5c613be2565b50601f01601f191660200190565b6000613c7d613c7884613c42565b613c11565b9050828152838383011115613c9157600080fd5b828260208301376000602084830101529392505050565b600082601f830112613cb957600080fd5b610cf083833560208501613c6a565b60008060008060808587031215613cde57600080fd5b8435613ce981613ba1565b93506020850135613cf981613ba1565b925060408501359150606085013567ffffffffffffffff811115613d1c57600080fd5b613d2887828801613ca8565b91505092959194509250565b60008060408385031215613d4757600080fd5b823591506020830135613d5981613ba1565b809150509250929050565b600080600060608486031215613d7957600080fd5b8335613d8481613ba1565b92506020840135613d9481613ba1565b929592945050506040919091013590565b600080600080600060a08688031215613dbd57600080fd5b8535613dc881613ba1565b945060208601359350604086013592506060860135613de681613ba1565b949793965091946080013592915050565b60008060408385031215613e0a57600080fd5b50508035926020909101359150565b600080600060408486031215613e2e57600080fd5b83359250602084013567ffffffffffffffff811115613e4c57600080fd5b613e5886828701613a97565b9497909650939450505050565b600060208284031215613e7757600080fd5b8135610cf081613ba1565b600060808284031215613e9457600080fd5b50919050565b600080600060c08486031215613eaf57600080fd5b8335613eba81613ba1565b925060208401359150613ed08560408601613e82565b90509250925092565b8015158114613a7757600080fd5b60008060008060e08587031215613efd57600080fd5b8435613f0881613ba1565b93506020850135613f1881613ba1565b92506040850135613f2881613ed9565b9150613f378660608701613e82565b905092959194509250565b60008060008060408587031215613f5857600080fd5b843567ffffffffffffffff80821115613f7057600080fd5b613f7c88838901613a97565b90965094506020870135915080821115613f9557600080fd5b50613fa287828801613a97565b95989497509550505050565b60008060408385031215613fc157600080fd5b8235613fcc81613ba1565b91506020830135613d5981613ed9565b60008060008060608587031215613ff257600080fd5b84359350602085013567ffffffffffffffff81111561401057600080fd5b61401c87828801613a97565b909450925050604085013561403081613ba1565b939692955090935050565b6000806040838503121561404e57600080fd5b823561405981613ba1565b91506020830135613d5981613ba1565b60006020828403121561407b57600080fd5b8151610cf081613ed9565b7f4e487b7100000000000000000000000000000000000000000000000000000000600052601160045260246000fd5b60007fffffffffffffffffffffffffffffffffffffffffffffffffffffffffffffffff82036140e6576140e6614086565b5060010190565b8183823760009101908152919050565b600181811c9082168061411157607f821691505b602082108103613e94577f4e487b7100000000000000000000000000000000000000000000000000000000600052602260045260246000fd5b80820281158282048414176109e3576109e3614086565b7f4e487b7100000000000000000000000000000000000000000000000000000000600052601260045260246000fd5b6000826141c6577f4e487b7100000000000000000000000000000000000000000000000000000000600052601260045260246000fd5b500490565b7f4e487b7100000000000000000000000000000000000000000000000000000000600052603260045260246000fd5b6000806040838503121561420d57600080fd5b823567ffffffffffffffff8082111561422557600080fd5b818501915085601f83011261423957600080fd5b61424886833560208501613c6a565b9350602085013591508082111561425e57600080fd5b5061426b85828601613ca8565b9150509250929050565b60008351614287818460208801613b25565b9190910191825250602001919050565b6000602082840312156142a957600080fd5b8151610cf081613ba1565b6000602082840312156142c657600080fd5b815167ffffffffffffffff8111156142dd57600080fd5b8201601f810184136142ee57600080fd5b80516142fc613c7882613c42565b81815285602083850101111561431157600080fd5b614322826020830160208601613b25565b95945050505050565b7f7b226e616d65223a20220000000000000000000000000000000000000000000081526000845161436381600a850160208901613b25565b7f2023000000000000000000000000000000000000000000000000000000000000600a9184019182015284516143a081600c840160208901613b25565b7f222c20226465736372697074696f6e223a20224465706c6f7920796f75722044600c92909101918201527f61707020616e64206c6574205072656d69756d466920626567696e2e222c2000602c820152835161440481604b840160208801613b25565b7f7d00000000000000000000000000000000000000000000000000000000000000604b9290910191820152604c0195945050505050565b7f646174613a6170706c69636174696f6e2f6a736f6e3b6261736536342c00000081526000825161447381601d850160208701613b25565b91909101601d0192915050565b6bffffffffffffffffffffffff8181168382160190808211156144a5576144a5614086565b5092915050565b6000602082840312156144be57600080fd5b813560ff81168114610cf057600080fd5b60006001600160a01b038087168352808616602084015250836040830152608060608301526112a36080830184613b49565b60006020828403121561451357600080fd5b8151610cf081613a49565b808201808211156109e3576109e3614086565b601f8211156110dc57600081815260208120601f850160051c810160208610156145585750805b601f850160051c820191505b8181101561457757828155600101614564565b505050505050565b815167ffffffffffffffff81111561459957614599613be2565b6145ad816145a784546140fd565b84614531565b602080601f83116001811461460057600084156145ca5750858301515b7fffffffffffffffffffffffffffffffffffffffffffffffffffffffffffffffff600386901b1c1916600185901b178555614577565b600085815260208120601f198616915b8281101561462f57888601518255948401946001909101908401614610565b508582101561466b57878501517fffffffffffffffffffffffffffffffffffffffffffffffffffffffffffffffff600388901b60f8161c191681555b5050505050600190811b01905550565b6000835161468d818460208801613b25565b7f2e0000000000000000000000000000000000000000000000000000000000000090830190815283516146c7816001840160208801613b25565b01600101949350505050565b600082516146e5818460208701613b25565b9190910192915050565b7f4e487b7100000000000000000000000000000000000000000000000000000000600052602160045260246000fd5b818103818111156109e3576109e3614086565b7f4e487b7100000000000000000000000000000000000000000000000000000000600052603160045260246000fdfe4142434445464748494a4b4c4d4e4f505152535455565758595a6162636465666768696a6b6c6d6e6f707172737475767778797a303132333435363738392b2fa164736f6c6343000815000a","linkReferences":{}},"methodIdentifiers":{"account(address,bytes32,uint256,address,uint256)":"246a0021","approve(address,uint256)":"095ea7b3","balanceOf(address)":"70a08231","createAccount(address,bytes32,uint256,address,uint256)":"8a54c52f","erc6551AccountImp()":"d919e678","getApproved(uint256)":"081812fc","getDomainSeparator()":"ed24911d","getName(bytes32)":"54b8d5e3","getNode(uint256)":"4f0f4aa9","getPrice()":"98d5fdca","getResolver(bytes32)":"ea6ec3de","getTokenId(bytes32)":"c9cb65e1","getTokenURIEngine(uint256)":"be04bb1d","isApprovedForAll(address,address)":"e985e9c5","isAuthorized(address,uint256)":"2972b0f0","isRecordExists(bytes32)":"e1c16cf9","mint(string,uint256)":"056b01ce","name()":"06fdde03","nextPriceNonce()":"9028feb1","nextTokenId()":"75794a3c","onERC721Received(address,address,uint256,bytes)":"150b7a02","ownerOf(uint256)":"6352211e","permit(address,uint256,(uint8,bytes32,bytes32,uint256))":"7ef67f99","permitForAll(address,address,bool,(uint8,bytes32,bytes32,uint256))":"89028a13","royaltyInfo(uint256,uint256)":"2a55205a","safeTransferFrom(address,address,uint256)":"42842e0e","safeTransferFrom(address,address,uint256,bytes)":"b88d4fde","setApprovalForAll(address,bool)":"a22cb465","setResolver(bytes32,address)":"1896f70a","setSubnode(bytes32,bytes)":"6e205a7a","setSubnodeRecord(bytes32,bytes,address)":"d7276fa1","setTokenURIEngine(uint256,address)":"e0d20fec","sigNonces(address)":"f990ccd7","supportsInterface(bytes4)":"01ffc9a7","symbol()":"95d89b41","tokenByIndex(uint256)":"4f6ccce7","tokenOfOwnerByIndex(address,uint256)":"2f745c59","tokenURI(uint256)":"c87b56dd","tokenURIWithSig(bytes,bytes)":"9f3c4b69","totalSupply()":"18160ddd","transferFrom(address,address,uint256)":"23b872dd","wrapCoin()":"04360b5c","wrapFoundationVault()":"8a5cc7fa"},"id":76}